head     36.0;
access   ;
symbols  ;
locks    ; strict;
comment  @*   @;


36.0
date     88.05.09.19.22.39;  author bart;  state Exp;
branches ;
next     ;


desc
@@


36.0
log
@added to rcs for updating
@
text
@S0030000FC
S214000000704E00000000000000000000000000002D
S21400001000000000000000000000000000000000DB
S21400002000000000000000000000000000000000CB
S21400003000000000000000000000000000000000BB
S21400004000000000000000000000000000000000AB
S214000050000000000000000000000000000000009B
S214000060000000000000000000000000000000008B
S214000070000000000000000000000000000000007B
S214000080000000000000000000000000000000006B
S214000090000000000000000000000000000000005B
S2140000A0000000000000000000000000000000004B
S2140000B0000000000000000000000000000000003B
S2140000C0000000000000000000000000000000002B
S2140000D0000000000000000000000000000000001B
S2140000E0000000000000000000000000000000000B
S2140000F000000000000000000000000000000000FB
S21400010000000000000000000000000000000000EA
S21400011000000000000000000000000000000000DA
S21400012000000000000000000000000000000000CA
S21400013000000000000000000000000000000000BA
S21400014000000000000000000000000000000000AA
S214000150000000000000000000000000000000009A
S214000160000000000000000000000000000000008A
S214000170000000000000000000000000000000007A
S214000180000000000000000000000000000000006A
S214000190000000000000000000000000000000005A
S2140001A0000000000000000000000000000000004A
S2140001B0000000000000000000000000000000003A
S2140001C0000000000000000000000000000000002A
S2140001D0000000000000000000000000000000001A
S2140001E0000000000000000000000000000000000A
S2140001F000000000000000000000000000000000FA
S21400020000000000000000000000000000000000E9
S21400021000000000000000000000000000000000D9
S21400022000000000000000000000000000000000C9
S21400023000000000000000000000000000000000B9
S21400024000000000000000000000000000000000A9
S2140002500000000000000000000000000000000099
S2140002600000000000000000000000000000000089
S2140002700000000000000000000000000000000079
S2140002800000000000000000000000000000000069
S2140002900000000000000000000000000000000059
S2140002A00000000000000000000000000000000049
S2140002B00000000000000000000000000000000039
S2140002C00000000000000000000000000000000029
S2140002D00000000000000000000000000000000019
S2140002E00000000000000000000000000000000009
S2140002F000000000000000000000000000000000F9
S21400030000000000000000000000000000000000E8
S21400031000000000000000000000000000000000D8
S21400032000000000000000000000000000000000C8
S21400033000000000000000000000000000000000B8
S21400034000000000000000000000000000000000A8
S2140003500000000000000000000000000000000098
S2140003600000000000000000000000000000000088
S2140003700000000000000000000000000000000078
S2140003800000000000000000000000000000000068
S2140003900000000000000000000000000000000058
S2140003A00000000000000000000000000000000048
S2140003B00000000000000000000000000000000038
S2140003C00000000000000000000000000000000028
S2140003D00000000000000000000000000000000018
S2140003E00000000000000000000000000000000008
S2140003F000000000000000000000000000000000F8
S21400040000000000000000000000000000000000E7
S21400041000000000000000000000000000000000D7
S21400042000000000000000000000000000000000C7
S21400043000000000000000000000000000000000B7
S21400044000000000000000000000000000000000A7
S2140004500000000000000000000000000000000097
S2140004600000000000000000000000000000000087
S2140004700000000000000000000000000000000077
S2140004800000000000000000000000000000000067
S2140004900000000000000000000000000000000057
S2140004A00000000000000000000000000000000047
S2140004B00000000000000000000000000000000037
S2140004C00000000000000000000000000000000027
S2140004D00000000000000000000000000000000017
S2140004E00000000000000000000000000000000007
S2140004F000000000000000000000000000000000F7
S21400050000000000000000000000000000000000E6
S21400051000000000000000000000000000000000D6
S21400052000000000000000000000000000000000C6
S21400053000000000000000000000000000000000B6
S21400054000000000000000000000000000000000A6
S2140005500000000000000000000000000000000096
S2140005600000000000000000000000000000000086
S2140005700000000000000000000000000000000076
S2140005800000000000000000000000000000000066
S2140005900000000000000000000000000000000056
S2140005A00000000000000000000000000000000046
S2140005B00000000000000000000000000000000036
S2140005C00000000000000000000000000000000026
S2140005D00000000000000000000000000000000016
S2140005E00000000000000000000000000000000006
S2140005F000000000000000000000000000000000F6
S21400060000000000000000000000000000000000E5
S21400061000000000000000000000000000000000D5
S21400062000000000000000000000000000000000C5
S21400063000000000000000000000000000000000B5
S21400064000000000000000000000000000000000A5
S2140006500000000000000000000000000000000095
S2140006600000000000000000000000000000000085
S2140006700000000000000000000000000000000075
S2140006800000000000000000000000000000000065
S2140006900000000000000000000000000000000055
S2140006A00000000000000000000000000000000045
S2140006B00000000000000000000000000000000035
S2140006C00000000000000000000000000000000025
S2140006D00000000000000000000000000000000015
S2140006E00000000000000000000000000000000005
S2140006F000000000000000000000000000000000F5
S21400070000000000000000000000000000000000E4
S21400071000000000000000000000000000000000D4
S21400072000000000000000000000000000000000C4
S21400073000000000000000000000000000000000B4
S21400074000000000000000000000000000000000A4
S2140007500000000000000000000000000000000094
S2140007600000000000000000000000000000000084
S2140007700000000000000000000000000000000074
S2140007800000000000000000000000000000000064
S2140007900000000000000000000000000000000054
S2140007A00000000000000000000000000000000044
S2140007B00000000000000000000000000000000034
S2140007C00000000000000000000000000000000024
S2140007D00000000000000000000000000000000014
S2140007E00000000000000000000000000000000004
S2140007F000000000000000000000000000000000F4
S21400080000000000000000000000000000000000E3
S21400081000000000000000000000000000000000D3
S21400082000000000000000000000000000000000C3
S21400083000000000000000000000000000000000B3
S21400084000000000000000000000000000000000A3
S2140008500000000000000000000000000000000093
S2140008600000000000000000000000000000000083
S2140008700000000000000000000000000000000073
S2140008800000000000000000000000000000000063
S2140008900000000000000000000000000000000053
S2140008A00000000000000000000000000000000043
S2140008B00000000000000000000000000000000033
S2140008C00000000000000000000000000000000023
S2140008D00000000000000000000000000000000013
S2140008E00000000000000000000000000000000003
S2140008F000000000000000000000000000000000F3
S21400090000000000000000000000000000000000E2
S21400091000000000000000000000000000000000D2
S21400092000000000000000000000000000000000C2
S21400093000000000000000000000000000000000B2
S21400094000000000000000000000000000000000A2
S2140009500000000000000000000000000000000092
S2140009600000000000000000000000000000000082
S2140009700000000000000000000000000000000072
S2140009800000000000000000000000000000000062
S2140009900000000000000000000000000000000052
S2140009A00000000000000000000000000000000042
S2140009B00000000000000000000000000000000032
S2140009C00000000000000000000000000000000022
S2140009D00000000000000000000000000000000012
S2140009E00000000000000000000000000000000002
S2140009F000000000000000000000000000000000F2
S214000A0000000000000000000000000000000000E1
S214000A1000000000000000000000000000000000D1
S214000A2000000000000000000000000000000000C1
S214000A3000000000000000000000000000000000B1
S214000A4000000000000000000000000000000000A1
S214000A500000000000000000000000000000000091
S214000A600000000000000000000000000000000081
S214000A700000000000000000000000000000000071
S214000A800000000000000000000000000000000061
S214000A900000000000000000000000000000000051
S214000AA00000000000000000000000000000000041
S214000AB00000000000000000000000000000000031
S214000AC00000000000000000000000000000000021
S214000AD00000000000000000000000000000000011
S214000AE00000000000000000000000000000000001
S214000AF000000000000000000000000000000000F1
S214000B0000000000000000000000000000000000E0
S214000B1000000000000000000000000000000000D0
S214000B2000000000000000000000000000000000C0
S214000B3000000000000000000000000000000000B0
S214000B4000000000000000000000000000000000A0
S214000B500000000000000000000000000000000090
S214000B600000000000000000000000000000000080
S214000B700000000000000000000000000000000070
S214000B800000000000000000000000000000000060
S214000B900000000000000000000000000000000050
S214000BA00000000000000000000000000000000040
S214000BB00000000000000000000000000000000030
S214000BC00000000000000000000000000000000020
S214000BD00000000000000000000000000000000010
S214000BE00000000000000000000000000000000000
S214000BF000000000000000000000000000000000F0
S214000C0000000000000000000000000000000000DF
S214000C1000000000000000000000000000000000CF
S214000C2000000000000000000000000000000000BF
S214000C3000000000000000000000000000000000AF
S214000C40000000000000000000000000000000009F
S214000C50000000000000000000000000000000008F
S214000C60000000000000000000000000000000007F
S214000C70000000000000000000000000000000006F
S214000C80000000000000000000000000000000005F
S214000C90000000000000000000000000000000004F
S214000CA0000000000000000000000000000000003F
S214000CB0000000000000000000000000000000002F
S214000CC0000000000000000000000000000000001F
S214000CD0000000000000000000000000000000000F
S214000CE000000000000000000000000000000000FF
S214000CF000000000000000000000000000000000EF
S214000D0000000000000000000000000000000000DE
S214000D1000000000000000000000000000000000CE
S214000D2000000000000000000000000000000000BE
S214000D3000000000000000000000000000000000AE
S214000D40000000000000000000000000000000009E
S214000D50000000000000000000000000000000008E
S214000D60000000000000000000000000000000007E
S214000D70000000000000000000000000000000006E
S214000D80000000000000000000000000000000005E
S214000D90000000000000000000000000000000004E
S214000DA0000000000000000000000000000000003E
S214000DB0000000000000000000000000000000002E
S214000DC0000000000000000000000000000000001E
S214000DD0000000000000000000000000000000000E
S214000DE000000000000000000000000000000000FE
S214000DF000000000000000000000000000000000EE
S214000E0000000000000000000000000000000000DD
S214000E1000000000000000000000000000000000CD
S214000E2000000000000000000000000000000000BD
S214000E3000000000000000000000000000000000AD
S214000E40000000000000000000000000000000009D
S214000E50000000000000000000000000000000008D
S214000E60000000000000000000000000000000007D
S214000E70000000000000000000000000000000006D
S214000E80000000000000000000000000000000005D
S214000E90000000000000000000000000000000004D
S214000EA0000000000000000000000000000000003D
S214000EB0000000000000000000000000000000002D
S214000EC0000000000000000000000000000000001D
S214000ED0000000000000000000000000000000000D
S214000EE000000000000000000000000000000000FD
S214000EF000000000000000000000000000000000ED
S214000F0000000000000000000000000000000000DC
S214000F1000000000000000000000000000000000CC
S214000F2000000000000000000000000000000000BC
S214000F3000000000000000000000000000000000AC
S214000F40000000000000000000000000000000009C
S214000F50000000000000000000000000000000008C
S214000F60000000000000000000000000000000007C
S214000F70000000000000000000000000000000006C
S214000F80000000000000000000000000000000005C
S214000F90000000000000000000000000000000004C
S214000FA0000000000000000000000000000000003C
S214000FB0000000000000000000000000000000002C
S214000FC0000000000000000000000000000000001C
S214000FD0000000000000000000000000000000000C
S214000FE000000000000000000000000000000000FC
S214000FF000000000000000000000000000000000EC
S21400100000000000000000000000000000000000DB
S21400101000000000000000000000000000000000CB
S21400102000000000000000000000000000000000BB
S21400103000000000000000000000000000000000AB
S214001040000000000000000000000000000000009B
S214001050000000000000000000000000000000008B
S214001060000000000000000000000000000000007B
S214001070000000000000000000000000000000006B
S214001080000000000000000000000000000000005B
S214001090000000000000000000000000000000004B
S2140010A0000000000000000000000000000000003B
S2140010B0000000000000000000000000000000002B
S2140010C0000000000000000000000000000000001B
S2140010D0000000000000000000000000000000000B
S2140010E000000000000000000000000000000000FB
S2140010F000000000000000000000000000000000EB
S21400110000000000000000000000000000000000DA
S21400111000000000000000000000000000000000CA
S21400112000000000000000000000000000000000BA
S21400113000000000000000000000000000000000AA
S214001140000000000000000000000000000000009A
S214001150000000000000000000000000000000008A
S214001160000000000000000000000000000000007A
S214001170000000000000000000000000000000006A
S214001180000000000000000000000000000000005A
S214001190000000000000000000000000000000004A
S2140011A0000000000000000000000000000000003A
S2140011B0000000000000000000000000000000002A
S2140011C0000000000000000000000000000000001A
S2140011D0000000000000000000000000000000000A
S2140011E000000000000000000000000000000000FA
S2140011F000000000000000000000000000000000EA
S21400120000000000000000000000000000000000D9
S21400121000000000000000000000000000000000C9
S21400122000000000000000000000000000000000B9
S21400123000000000000000000000000000000000A9
S2140012400000000000000000000000000000000099
S2140012500000000000000000000000000000000089
S2140012600000000000000000000000000000000079
S2140012700000000000000000000000000000000069
S2140012800000000000000000000000000000000059
S2140012900000000000000000000000000000000049
S2140012A00000000000000000000000000000000039
S2140012B00000000000000000000000000000000029
S2140012C00000000000000000000000000000000019
S2140012D00000000000000000000000000000000009
S2140012E000000000000000000000000000000000F9
S2140012F000000000000000000000000000000000E9
S21400130000000000000000000000000000000000D8
S21400131000000000000000000000000000000000C8
S21400132000000000000000000000000000000000B8
S21400133000000000000000000000000000000000A8
S2140013400000000000000000000000000000000098
S2140013500000000000000000000000000000000088
S2140013600000000000000000000000000000000078
S2140013700000000000000000000000000000000068
S2140013800000000000000000000000000000000058
S2140013900000000000000000000000000000000048
S2140013A00000000000000000000000000000000038
S2140013B00000000000000000000000000000000028
S2140013C00000000000000000000000000000000018
S2140013D00000000000000000000000000000000008
S2140013E000000000000000000000000000000000F8
S2140013F000000000000000000000000000000000E8
S21400140000000000000000000000000000000000D7
S21400141000000000000000000000000000000000C7
S21400142000000000000000000000000000000000B7
S21400143000000000000000000000000000000000A7
S2140014400000000000000000000000000000000097
S2140014500000000000000000000000000000000087
S2140014600000000000000000000000000000000077
S2140014700000000000000000000000000000000067
S2140014800000000000000000000000000000000057
S2140014900000000000000000000000000000000047
S2140014A00000000000000000000000000000000037
S2140014B00000000000000000000000000000000027
S2140014C00000000000000000000000000000000017
S2140014D00000000000000000000000000000000007
S2140014E000000000000000000000000000000000F7
S2140014F000000000000000000000000000000000E7
S21400150000000000000000000000000000000000D6
S21400151000000000000000000000000000000000C6
S21400152000000000000000000000000000000000B6
S21400153000000000000000000000000000000000A6
S2140015400000000000000000000000000000000096
S2140015500000000000000000000000000000000086
S2140015600000000000000000000000000000000076
S2140015700000000000000000000000000000000066
S2140015800000000000000000000000000000000056
S2140015900000000000000000000000000000000046
S2140015A00000000000000000000000000000000036
S2140015B00000000000000000000000000000000026
S2140015C00000000000000000000000000000000016
S2140015D00000000000000000000000000000000006
S2140015E000000000000000000000000000000000F6
S2140015F000000000000000000000000000000000E6
S21400160000000000000000000000000000000000D5
S21400161000000000000000000000000000000000C5
S21400162000000000000000000000000000000000B5
S21400163000000000000000000000000000000000A5
S2140016400000000000000000000000000000000095
S2140016500000000000000000000000000000000085
S2140016600000000000000000000000000000000075
S2140016700000000000000000000000000000000065
S2140016800000000000000000000000000000000055
S2140016900000000000000000000000000000000045
S2140016A00000000000000000000000000000000035
S2140016B00000000000000000000000000000000025
S2140016C00000000000000000000000000000000015
S2140016D00000000000000000000000000000000005
S2140016E000000000000000000000000000000000F5
S2140016F000000000000000000000000000000000E5
S21400170000000000000000000000000000000000D4
S21400171000000000000000000000000000000000C4
S21400172000000000000000000000000000000000B4
S21400173000000000000000000000000000000000A4
S2140017400000000000000000000000000000000094
S2140017500000000000000000000000000000000084
S2140017600000000000000000000000000000000074
S2140017700000000000000000000000000000000064
S2140017800000000000000000000000000000000054
S2140017900000000000000000000000000000000044
S2140017A00000000000000000000000000000000034
S2140017B00000000000000000000000000000000024
S2140017C00000000000000000000000000000000014
S2140017D00000000000000000000000000000000004
S2140017E000000000000000000000000000000000F4
S2140017F000000000000000000000000000000000E4
S21400180000000000000000000000000000000000D3
S21400181000000000000000000000000000000000C3
S21400182000000000000000000000000000000000B3
S21400183000000000000000000000000000000000A3
S2140018400000000000000000000000000000000093
S2140018500000000000000000000000000000000083
S2140018600000000000000000000000000000000073
S2140018700000000000000000000000000000000063
S2140018800000000000000000000000000000000053
S2140018900000000000000000000000000000000043
S2140018A00000000000000000000000000000000033
S2140018B00000000000000000000000000000000023
S2140018C00000000000000000000000000000000013
S2140018D00000000000000000000000000000000003
S2140018E000000000000000000000000000000000F3
S2140018F000000000000000000000000000000000E3
S21400190000000000000000000000000000000000D2
S21400191000000000000000000000000000000000C2
S21400192000000000000000000000000000000000B2
S21400193000000000000000000000000000000000A2
S2140019400000000000000000000000000000000092
S2140019500000000000000000000000000000000082
S2140019600000000000000000000000000000000072
S2140019700000000000000000000000000000000062
S2140019800000000000000000000000000000000052
S2140019900000000000000000000000000000000042
S2140019A00000000000000000000000000000000032
S2140019B00000000000000000000000000000000022
S2140019C00000000000000000000000000000000012
S2140019D00000000000000000000000000000000002
S2140019E000000000000000000000000000000000F2
S2140019F000000000000000000000000000000000E2
S214001A0000000000000000000000000000000000D1
S214001A1000000000000000000000000000000000C1
S214001A2000000000000000000000000000000000B1
S214001A3000000000000000000000000000000000A1
S214001A400000000000000000000000000000000091
S214001A500000000000000000000000000000000081
S214001A600000000000000000000000000000000071
S214001A700000000000000000000000000000000061
S214001A800000000000000000000000000000000051
S214001A900000000000000000000000000000000041
S214001AA00000000000000000000000000000000031
S214001AB00000000000000000000000000000000021
S214001AC00000000000000000000000000000000011
S214001AD00000000000000000000000000000000001
S214001AE000000000000000000000000000000000F1
S214001AF000000000000000000000000000000000E1
S214001B0000000000000000000000000000000000D0
S214001B1000000000000000000000000000000000C0
S214001B2000000000000000000000000000000000B0
S214001B3000000000000000000000000000000000A0
S214001B400000000000000000000000000000000090
S214001B500000000000000000000000000000000080
S214001B600000000000000000000000000000000070
S214001B700000000000000000000000000000000060
S214001B800000000000000000000000000000000050
S214001B900000000000000000000000000000000040
S214001BA00000000000000000000000000000000030
S214001BB00000000000000000000000000000000020
S214001BC00000000000000000000000000000000010
S214001BD00000000000000000000000000000000000
S214001BE000000000000000000000000000000000F0
S214001BF000000000000000000000000000000000E0
S214001C0000000000000000000000000000000000CF
S214001C1000000000000000000000000000000000BF
S214001C2000000000000000000000000000000000AF
S214001C30000000000000000000000000000000009F
S214001C40000000000000000000000000000000008F
S214001C50000000000000000000000000000000007F
S214001C60000000000000000000000000000000006F
S214001C70000000000000000000000000000000005F
S214001C80000000000000000000000000000000004F
S214001C90000000000000000000000000000000003F
S214001CA0000000000000000000000000000000002F
S214001CB0000000000000000000000000000000001F
S214001CC0000000000000000000000000000000000F
S214001CD000000000000000000000000000000000FF
S214001CE000000000000000000000000000000000EF
S214001CF000000000000000000000000000000000DF
S214001D0000000000000000000000000000000000CE
S214001D1000000000000000000000000000000000BE
S214001D2000000000000000000000000000000000AE
S214001D30000000000000000000000000000000009E
S214001D40000000000000000000000000000000008E
S214001D50000000000000000000000000000000007E
S214001D60000000000000000000000000000000006E
S214001D70000000000000000000000000000000005E
S214001D80000000000000000000000000000000004E
S214001D90000000000000000000000000000000003E
S214001DA0000000000000000000000000000000002E
S214001DB0000000000000000000000000000000001E
S214001DC0000000000000000000000000000000000E
S214001DD000000000000000000000000000000000FE
S214001DE000000000000000000000000000000000EE
S214001DF000000000000000000000000000000000DE
S214001E0000000000000000000000000000000000CD
S214001E1000000000000000000000000000000000BD
S214001E2000000000000000000000000000000000AD
S214001E30000000000000000000000000000000009D
S214001E40000000000000000000000000000000008D
S214001E50000000000000000000000000000000007D
S214001E60000000000000000000000000000000006D
S214001E70000000000000000000000000000000005D
S214001E80000000000000000000000000000000004D
S214001E90000000000000000000000000000000003D
S214001EA0000000000000000000000000000000002D
S214001EB0000000000000000000000000000000001D
S214001EC0000000000000000000000000000000000D
S214001ED000000000000000000000000000000000FD
S214001EE000000000000000000000000000000000ED
S214001EF000000000000000000000000000000000DD
S214001F0000000000000000000000000000000000CC
S214001F1000000000000000000000000000000000BC
S214001F2000000000000000000000000000000000AC
S214001F30000000000000000000000000000000009C
S214001F40000000000000000000000000000000008C
S214001F50000000000000000000000000000000007C
S214001F60000000000000000000000000000000006C
S214001F70000000000000000000000000000000005C
S214001F80000000000000000000000000000000004C
S214001F90000000000000000000000000000000003C
S214001FA0000000000000000000000000000000002C
S214001FB0000000000000000000000000000000001C
S214001FC0000000000000000000000000000000000C
S214001FD000000000000000000000000000000000FC
S214001FE000000000000000000000000000000000EC
S214001FF000000000000000000000000000000000DC
S21400200000000000000000000000000000000000CB
S21400201000000000000000000000000000000000BB
S21400202000000000000000000000000000000000AB
S214002030000000000000000000000000000000009B
S214002040000000000000000000000000000000008B
S214002050000000000000000000000000000000007B
S214002060000000000000000000000000000000006B
S214002070000000000000000000000000000000005B
S214002080000000000000000000000000000000004B
S214002090000000000000000000000000000000003B
S2140020A0000000000000000000000000000000002B
S2140020B0000000000000000000000000000000001B
S2140020C0000000000000000000000000000000000B
S2140020D000000000000000000000000000000000FB
S2140020E000000000000000000000000000000000EB
S2140020F000000000000000000000000000000000DB
S21400210000000000000000000000000000000000CA
S21400211000000000000000000000000000000000BA
S21400212000000000000000000000000000000000AA
S214002130000000000000000000000000000000009A
S214002140000000000000000000000000000000008A
S214002150000000000000000000000000000000007A
S214002160000000000000000000000000000000006A
S214002170000000000000000000000000000000005A
S214002180000000000000000000000000000000004A
S214002190000000000000000000000000000000003A
S2140021A0000000000000000000000000000000002A
S2140021B0000000000000000000000000000000001A
S2140021C0000000000000000000000000000000000A
S2140021D000000000000000000000000000000000FA
S2140021E000000000000000000000000000000000EA
S2140021F000000000000000000000000000000000DA
S21400220000000000000000000000000000000000C9
S21400221000000000000000000000000000000000B9
S21400222000000000000000000000000000000000A9
S2140022300000000000000000000000000000000099
S2140022400000000000000000000000000000000089
S2140022500000000000000000000000000000000079
S2140022600000000000000000000000000000000069
S2140022700000000000000000000000000000000059
S2140022800000000000000000000000000000000049
S2140022900000000000000000000000000000000039
S2140022A00000000000000000000000000000000029
S2140022B00000000000000000000000000000000019
S2140022C00000000000000000000000000000000009
S2140022D000000000000000000000000000000000F9
S2140022E000000000000000000000000000000000E9
S2140022F000000000000000000000000000000000D9
S21400230000000000000000000000000000000000C8
S21400231000000000000000000000000000000000B8
S21400232000000000000000000000000000000000A8
S2140023300000000000000000000000000000000098
S2140023400000000000000000000000000000000088
S2140023500000000000000000000000000000000078
S2140023600000000000000000000000000000000068
S2140023700000000000000000000000000000000058
S2140023800000000000000000000000000000000048
S2140023900000000000000000000000000000000038
S2140023A00000000000000000000000000000000028
S2140023B00000000000000000000000000000000018
S2140023C00000000000000000000000000000000008
S2140023D000000000000000000000000000000000F8
S2140023E000000000000000000000000000000000E8
S2140023F000000000000000000000000000000000D8
S21400240000000000000000000000000000000000C7
S21400241000000000000000000000000000000000B7
S21400242000000000000000000000000000000000A7
S2140024300000000000000000000000000000000097
S2140024400000000000000000000000000000000087
S2140024500000000000000000000000000000000077
S2140024600000000000000000000000000000000067
S2140024700000000000000000000000000000000057
S2140024800000000000000000000000000000000047
S2140024900000000000000000000000000000000037
S2140024A00000000000000000000000000000000027
S2140024B00000000000000000000000000000000017
S2140024C00000000000000000000000000000000007
S2140024D000000000000000000000000000000000F7
S2140024E000000000000000000000000000000000E7
S2140024F000000000000000000000000000000000D7
S21400250000000000000000000000000000000000C6
S21400251000000000000000000000000000000000B6
S21400252000000000000000000000000000000000A6
S2140025300000000000000000000000000000000096
S2140025400000000000000000000000000000000086
S2140025500000000000000000000000000000000076
S2140025600000000000000000000000000000000066
S2140025700000000000000000000000000000000056
S2140025800000000000000000000000000000000046
S2140025900000000000000000000000000000000036
S2140025A00000000000000000000000000000000026
S2140025B00000000000000000000000000000000016
S2140025C00000000000000000000000000000000006
S2140025D000000000000000000000000000000000F6
S2140025E000000000000000000000000000000000E6
S2140025F000000000000000000000000000000000D6
S21400260000000000000000000000000000000000C5
S21400261000000000000000000000000000000000B5
S21400262000000000000000000000000000000000A5
S2140026300000000000000000000000000000000095
S2140026400000000000000000000000000000000085
S2140026500000000000000000000000000000000075
S2140026600000000000000000000000000000000065
S2140026700000000000000000000000000000000055
S2140026800000000000000000000000000000000045
S2140026900000000000000000000000000000000035
S2140026A00000000000000000000000000000000025
S2140026B00000000000000000000000000000000015
S2140026C00000000000000000000000000000000005
S2140026D000000000000000000000000000000000F5
S2140026E000000000000000000000000000000000E5
S2140026F000000000000000000000000000000000D5
S21400270000000000000000000000000000000000C4
S21400271000000000000000000000000000000000B4
S21400272000000000000000000000000000000000A4
S2140027300000000000000000000000000000000094
S2140027400000000000000000000000000000000084
S2140027500000000000000000000000000000000074
S2140027600000000000000000000000000000000064
S2140027700000000000000000000000000000000054
S2140027800000000000000000000000000000000044
S2140027900000000000000000000000000000000034
S2140027A00000000000000000000000000000000024
S2140027B00000000000000000000000000000000014
S2140027C00000000000000000000000000000000004
S2140027D000000000000000000000000000000000F4
S2140027E000000000000000000000000000000000E4
S2140027F000000000000000000000000000000000D4
S21400280000000000000000000000000000000000C3
S21400281000000000000000000000000000000000B3
S21400282000000000000000000000000000000000A3
S2140028300000000000000000000000000000000093
S2140028400000000000000000000000000000000083
S2140028500000000000000000000000000000000073
S2140028600000000000000000000000000000000063
S2140028700000000000000000000000000000000053
S2140028800000000000000000000000000000000043
S2140028900000000000000000000000000000000033
S2140028A00000000000000000000000000000000023
S2140028B00000000000000000000000000000000013
S2140028C00000000000000000000000000000000003
S2140028D000000000000000000000000000000000F3
S2140028E000000000000000000000000000000000E3
S2140028F000000000000000000000000000000000D3
S21400290000000000000000000000000000000000C2
S21400291000000000000000000000000000000000B2
S21400292000000000000000000000000000000000A2
S2140029300000000000000000000000000000000092
S2140029400000000000000000000000000000000082
S2140029500000000000000000000000000000000072
S2140029600000000000000000000000000000000062
S2140029700000000000000000000000000000000052
S2140029800000000000000000000000000000000042
S2140029900000000000000000000000000000000032
S2140029A00000000000000000000000000000000022
S2140029B00000000000000000000000000000000012
S2140029C00000000000000000000000000000000002
S2140029D000000000000000000000000000000000F2
S2140029E000000000000000000000000000000000E2
S2140029F000000000000000000000000000000000D2
S214002A0000000000000000000000000000000000C1
S214002A1000000000000000000000000000000000B1
S214002A2000000000000000000000000000000000A1
S214002A300000000000000000000000000000000091
S214002A400000000000000000000000000000000081
S214002A500000000000000000000000000000000071
S214002A600000000000000000000000000000000061
S214002A700000000000000000000000000000000051
S214002A800000000000000000000000000000000041
S214002A900000000000000000000000000000000031
S214002AA00000000000000000000000000000000021
S214002AB00000000000000000000000000000000011
S214002AC00000000000000000000000000000000001
S214002AD000000000000000000000000000000000F1
S214002AE000000000000000000000000000000000E1
S214002AF000000000000000000000000000000000D1
S214002B0000000000000000000000000000000000C0
S214002B1000000000000000000000000000000000B0
S214002B2000000000000000000000000000000000A0
S214002B300000000000000000000000000000000090
S214002B400000000000000000000000000000000080
S214002B500000000000000000000000000000000070
S214002B600000000000000000000000000000000060
S214002B700000000000000000000000000000000050
S214002B800000000000000000000000000000000040
S214002B900000000000000000000000000000000030
S214002BA00000000000000000000000000000000020
S214002BB00000000000000000000000000000000010
S214002BC00000000000000000000000000000000000
S214002BD000000000000000000000000000000000F0
S214002BE000000000000000000000000000000000E0
S214002BF000000000000000000000000000000000D0
S214002C0000000000000000000000000000000000BF
S214002C1000000000000000000000000000000000AF
S214002C20000000000000000000000000000000009F
S214002C30000000000000000000000000000000008F
S214002C40000000000000000000000000000000007F
S214002C50000000000000000000000000000000006F
S214002C60000000000000000000000000000000005F
S214002C70000000000000000000000000000000004F
S214002C80000000000000000000000000000000003F
S214002C90000000000000000000000000000000002F
S214002CA0000000000000000000000000000000001F
S214002CB0000000000000000000000000000000000F
S214002CC000000000000000000000000000000000FF
S214002CD000000000000000000000000000000000EF
S214002CE000000000000000000000000000000000DF
S214002CF000000000000000000000000000000000CF
S214002D0000000000000000000000000000000000BE
S214002D1000000000000000000000000000000000AE
S214002D20000000000000000000000000000000009E
S214002D30000000000000000000000000000000008E
S214002D40000000000000000000000000000000007E
S214002D50000000000000000000000000000000006E
S214002D60000000000000000000000000000000005E
S214002D70000000000000000000000000000000004E
S214002D80000000000000000000000000000000003E
S214002D90000000000000000000000000000000002E
S214002DA0000000000000000000000000000000001E
S214002DB0000000000000000000000000000000000E
S214002DC000000000000000000000000000000000FE
S214002DD000000000000000000000000000000000EE
S214002DE000000000000000000000000000000000DE
S214002DF000000000000000000000000000000000CE
S214002E0000000000000000000000000000000000BD
S214002E1000000000000000000000000000000000AD
S214002E20000000000000000000000000000000009D
S214002E30000000000000000000000000000000008D
S214002E40000000000000000000000000000000007D
S214002E50000000000000000000000000000000006D
S214002E60000000000000000000000000000000005D
S214002E70000000000000000000000000000000004D
S214002E80000000000000000000000000000000003D
S214002E90000000000000000000000000000000002D
S214002EA0000000000000000000000000000000001D
S214002EB0000000000000000000000000000000000D
S214002EC000000000000000000000000000000000FD
S214002ED000000000000000000000000000000000ED
S214002EE000000000000000000000000000000000DD
S214002EF000000000000000000000000000000000CD
S214002F0000000000000000000000000000000000BC
S214002F1000000000000000000000000000000000AC
S214002F20000000000000000000000000000000009C
S214002F30000000000000000000000000000000008C
S214002F40000000000000000000000000000000007C
S214002F50000000000000000000000000000000006C
S214002F60000000000000000000000000000000005C
S214002F70000000000000000000000000000000004C
S214002F80000000000000000000000000000000003C
S214002F90000000000000000000000000000000002C
S214002FA0000000000000000000000000000000001C
S214002FB0000000000000000000000000000000000C
S214002FC000000000000000000000000000000000FC
S214002FD000000000000000000000000000000000EC
S214002FE000000000000000000000000000000000DC
S214002FF000000000000000000000000000000000CC
S21400300000000000000000000000000000000000BB
S21400301000000000000000000000000000000000AB
S214003020000000000000000000000000000000009B
S214003030000000000000000000000000000000008B
S214003040000000000000000000000000000000007B
S214003050000000000000000000000000000000006B
S214003060000000000000000000000000000000005B
S214003070000000000000000000000000000000004B
S214003080000000000000000000000000000000003B
S214003090000000000000000000000000000000002B
S2140030A0000000000000000000000000000000001B
S2140030B0000000000000000000000000000000000B
S2140030C000000000000000000000000000000000FB
S2140030D000000000000000000000000000000000EB
S2140030E000000000000000000000000000000000DB
S2140030F000000000000000000000000000000000CB
S21400310000000000000000000000000000000000BA
S21400311000000000000000000000000000000000AA
S214003120000000000000000000000000000000009A
S214003130000000000000000000000000000000008A
S214003140000000000000000000000000000000007A
S214003150000000000000000000000000000000006A
S214003160000000000000000000000000000000005A
S214003170000000000000000000000000000000004A
S214003180000000000000000000000000000000003A
S214003190000000000000000000000000000000002A
S2140031A0000000000000000000000000000000001A
S2140031B0000000000000000000000000000000000A
S2140031C000000000000000000000000000000000FA
S2140031D000000000000000000000000000000000EA
S2140031E000000000000000000000000000000000DA
S2140031F000000000000000000000000000000000CA
S21400320000000000000000000000000000000000B9
S21400321000000000000000000000000000000000A9
S2140032200000000000000000000000000000000099
S2140032300000000000000000000000000000000089
S2140032400000000000000000000000000000000079
S2140032500000000000000000000000000000000069
S2140032600000000000000000000000000000000059
S2140032700000000000000000000000000000000049
S2140032800000000000000000000000000000000039
S2140032900000000000000000000000000000000029
S2140032A00000000000000000000000000000000019
S2140032B00000000000000000000000000000000009
S2140032C000000000000000000000000000000000F9
S2140032D000000000000000000000000000000000E9
S2140032E000000000000000000000000000000000D9
S2140032F000000000000000000000000000000000C9
S21400330000000000000000000000000000000000B8
S21400331000000000000000000000000000000000A8
S2140033200000000000000000000000000000000098
S2140033300000000000000000000000000000000088
S2140033400000000000000000000000000000000078
S2140033500000000000000000000000000000000068
S2140033600000000000000000000000000000000058
S2140033700000000000000000000000000000000048
S2140033800000000000000000000000000000000038
S2140033900000000000000000000000000000000028
S2140033A00000000000000000000000000000000018
S2140033B00000000000000000000000000000000008
S2140033C000000000000000000000000000000000F8
S2140033D000000000000000000000000000000000E8
S2140033E000000000000000000000000000000000D8
S2140033F000000000000000000000000000000000C8
S21400340000000000000000000000000000000000B7
S21400341000000000000000000000000000000000A7
S2140034200000000000000000000000000000000097
S2140034300000000000000000000000000000000087
S2140034400000000000000000000000000000000077
S2140034500000000000000000000000000000000067
S2140034600000000000000000000000000000000057
S2140034700000000000000000000000000000000047
S2140034800000000000000000000000000000000037
S2140034900000000000000000000000000000000027
S2140034A00000000000000000000000000000000017
S2140034B00000000000000000000000000000000007
S2140034C000000000000000000000000000000000F7
S2140034D000000000000000000000000000000000E7
S2140034E000000000000000000000000000000000D7
S2140034F000000000000000000000000000000000C7
S21400350000000000000000000000000000000000B6
S21400351000000000000000000000000000000000A6
S2140035200000000000000000000000000000000096
S2140035300000000000000000000000000000000086
S2140035400000000000000000000000000000000076
S2140035500000000000000000000000000000000066
S2140035600000000000000000000000000000000056
S2140035700000000000000000000000000000000046
S2140035800000000000000000000000000000000036
S2140035900000000000000000000000000000000026
S2140035A00000000000000000000000000000000016
S2140035B00000000000000000000000000000000006
S2140035C000000000000000000000000000000000F6
S2140035D000000000000000000000000000000000E6
S2140035E000000000000000000000000000000000D6
S2140035F000000000000000000000000000000000C6
S21400360000000000000000000000000000000000B5
S21400361000000000000000000000000000000000A5
S2140036200000000000000000000000000000000095
S2140036300000000000000000000000000000000085
S2140036400000000000000000000000000000000075
S2140036500000000000000000000000000000000065
S2140036600000000000000000000000000000000055
S2140036700000000000000000000000000000000045
S2140036800000000000000000000000000000000035
S2140036900000000000000000000000000000000025
S2140036A00000000000000000000000000000000015
S2140036B00000000000000000000000000000000005
S2140036C000000000000000000000000000000000F5
S2140036D000000000000000000000000000000000E5
S2140036E000000000000000000000000000000000D5
S2140036F000000000000000000000000000000000C5
S21400370000000000000000000000000000000000B4
S21400371000000000000000000000000000000000A4
S2140037200000000000000000000000000000000094
S2140037300000000000000000000000000000000084
S2140037400000000000000000000000000000000074
S2140037500000000000000000000000000000000064
S2140037600000000000000000000000000000000054
S2140037700000000000000000000000000000000044
S2140037800000000000000000000000000000000034
S2140037900000000000000000000000000000000024
S2140037A00000000000000000000000000000000014
S2140037B00000000000000000000000000000000004
S2140037C000000000000000000000000000000000F4
S2140037D000000000000000000000000000000000E4
S2140037E000000000000000000000000000000000D4
S2140037F000000000000000000000000000000000C4
S21400380000000000000000000000000000000000B3
S21400381000000000000000000000000000000000A3
S2140038200000000000000000000000000000000093
S2140038300000000000000000000000000000000083
S2140038400000000000000000000000000000000073
S2140038500000000000000000000000000000000063
S2140038600000000000000000000000000000000053
S2140038700000000000000000000000000000000043
S2140038800000000000000000000000000000000033
S2140038900000000000000000000000000000000023
S2140038A00000000000000000000000000000000013
S2140038B00000000000000000000000000000000003
S2140038C000000000000000000000000000000000F3
S2140038D000000000000000000000000000000000E3
S2140038E000000000000000000000000000000000D3
S2140038F000000000000000000000000000000000C3
S21400390000000000000000000000000000000000B2
S21400391000000000000000000000000000000000A2
S2140039200000000000000000000000000000000092
S2140039300000000000000000000000000000000082
S2140039400000000000000000000000000000000072
S2140039500000000000000000000000000000000062
S2140039600000000000000000000000000000000052
S2140039700000000000000000000000000000000042
S2140039800000000000000000000000000000000032
S2140039900000000000000000000000000000000022
S2140039A00000000000000000000000000000000012
S2140039B00000000000000000000000000000000002
S2140039C000000000000000000000000000000000F2
S2140039D000000000000000000000000000000000E2
S2140039E000000000000000000000000000000000D2
S2140039F000000000000000000000000000000000C2
S214003A0000000000000000000000000000000000B1
S214003A1000000000000000000000000000000000A1
S214003A200000000000000000000000000000000091
S214003A300000000000000000000000000000000081
S214003A400000000000000000000000000000000071
S214003A500000000000000000000000000000000061
S214003A600000000000000000000000000000000051
S214003A700000000000000000000000000000000041
S214003A800000000000000000000000000000000031
S214003A900000000000000000000000000000000021
S214003AA00000000000000000000000000000000011
S214003AB00000000000000000000000000000000001
S214003AC000000000000000000000000000000000F1
S214003AD000000000000000000000000000000000E1
S214003AE000000000000000000000000000000000D1
S214003AF000000000000000000000000000000000C1
S214003B0000000000000000000000000000000000B0
S214003B1000000000000000000000000000000000A0
S214003B200000000000000000000000000000000090
S214003B300000000000000000000000000000000080
S214003B400000000000000000000000000000000070
S214003B500000000000000000000000000000000060
S214003B600000000000000000000000000000000050
S214003B700000000000000000000000000000000040
S214003B800000000000000000000000000000000030
S214003B900000000000000000000000000000000020
S214003BA00000000000000000000000000000000010
S214003BB00000000000000000000000000000000000
S214003BC000000000000000000000000000000000F0
S214003BD000000000000000000000000000000000E0
S214003BE000000000000000000000000000000000D0
S214003BF000000000000000000000000000000000C0
S214003C0000000000000000000000000000000000AF
S214003C10000000000000000000000000000000009F
S214003C20000000000000000000000000000000008F
S214003C30000000000000000000000000000000007F
S214003C40000000000000000000000000000000006F
S214003C50000000000000000000000000000000005F
S214003C60000000000000000000000000000000004F
S214003C70000000000000000000000000000000003F
S214003C80000000000000000000000000000000002F
S214003C90000000000000000000000000000000001F
S214003CA0000000000000000000000000000000000F
S214003CB000000000000000000000000000000000FF
S214003CC000000000000000000000000000000000EF
S214003CD000000000000000000000000000000000DF
S214003CE000000000000000000000000000000000CF
S214003CF000000000000000000000000000000000BF
S214003D0000000000000000000000000000000000AE
S214003D10000000000000000000000000000000009E
S214003D20000000000000000000000000000000008E
S214003D30000000000000000000000000000000007E
S214003D40000000000000000000000000000000006E
S214003D50000000000000000000000000000000005E
S214003D60000000000000000000000000000000004E
S214003D70000000000000000000000000000000003E
S214003D80000000000000000000000000000000002E
S214003D90000000000000000000000000000000001E
S214003DA0000000000000000000000000000000000E
S214003DB000000000000000000000000000000000FE
S214003DC000000000000000000000000000000000EE
S214003DD000000000000000000000000000000000DE
S214003DE000000000000000000000000000000000CE
S214003DF000000000000000000000000000000000BE
S214003E0000000000000000000000000000000000AD
S214003E10000000000000000000000000000000009D
S214003E20000000000000000000000000000000008D
S214003E30000000000000000000000000000000007D
S214003E40000000000000000000000000000000006D
S214003E50000000000000000000000000000000005D
S214003E60000000000000000000000000000000004D
S214003E70000000000000000000000000000000003D
S214003E80000000000000000000000000000000002D
S214003E90000000000000000000000000000000001D
S214003EA0000000000000000000000000000000000D
S214003EB000000000000000000000000000000000FD
S214003EC000000000000000000000000000000000ED
S214003ED000000000000000000000000000000000DD
S214003EE000000000000000000000000000000000CD
S214003EF000000000000000000000000000000000BD
S214003F0000000000000000000000000000000000AC
S214003F10000000000000000000000000000000009C
S214003F20000000000000000000000000000000008C
S214003F30000000000000000000000000000000007C
S214003F40000000000000000000000000000000006C
S214003F50000000000000000000000000000000005C
S214003F60000000000000000000000000000000004C
S214003F70000000000000000000000000000000003C
S214003F80000000000000000000000000000000002C
S214003F90000000000000000000000000000000001C
S214003FA0000000000000000000000000000000000C
S214003FB000000000000000000000000000000000FC
S214003FC000000000000000000000000000000000EC
S214003FD000000000000000000000000000000000DC
S214003FE000000000000000000000000000000000CC
S214003FF000000000000000000000000000000000BC
S214004000900100000000004453000000002F430011
S2140040104EFF4A672020004E204E206064736C627C
S2140040206179726D6F74647663004A008000810166
S214004030030080008000860065706E696E6C6261A9
S2140040407900697469696E6C626179006864732EC0
S21400405065696500626F726D332E20354D79313893
S214004060290A480043FF20D02241FF43FF2241FF98
S21400407043FF2241FF43FF22410043FF2243FF91BB
S21400408020E42243FF70224300224C02704E0000C0
S2140040902C0020000800006711000008000A6711C5
S2140040A000001000200001430A4EFE7060704E00B3
S2140040B04840410D20000022424A1067B2106E327E
S2140040C01022D1001051FF204210420042104C0234
S2140040D04E22410D200000B2006642004210D10080
S2140040E01051FF4E487828421042001D000A220058
S2140040F08200C200280600002900610FB200662078
S214004100900C00006F200000602200B2676DB200C5
S2140041106D22522900410060225229004100B86DEC
S2140041202898002060B86F28980020602D0000298D
S214004130000070602D0000200011001910D000292A
S2140041400029000029000043002D0061014A674253
S2140041500042104A4C104E48002A6100206661FE5C
S2140041602861FF4A6620009000C0024100D02070FF
S2140041702A51FF424C304E485C2A6100206770226C
S2140041802051FF2A20001100001D000A2D002200E9
S214004190610E2D00614C304E4870220026410D20E5
S2140041A000005210D1001051FF410D200000B60053
S2140041B066B2006DB2006C42109200C2024300D29A
S2140041C060D1001051FF7222204C004E481028008B
S2140041D0260000190A0019000041004300121212BE
S2140041E04100430012121210048100611710006192
S2140041F00F670C006600536661004A60424C174E1B
S214004200481F28007E1E001900002C41007818E187
S21400421018E11841007A1AE11AE11A7060004300AA
S2140042204812E112E11206000243004812E112E1D0
S214004230125276D6C602190A001900004100410043
S21400424043001004810061161000610E67000C0028
S214004250660053664A604256FF19004C174E4838AF
S21400426026002D004204242D0020002202000166B4
S214004270002800260070E02200E02D000C000066FA
S214004280002030000C006661FD6061FD52000600F3
S21400429002060002004A660053662200610D4C1CAE
S2140042A04E22001300006028002600002000220294
S2140042B000016620002D0025000000220070E02D81
S2140042C0002200E02D00240030000C0067190000DA
S2140042D061FC601900001900004100430012121230
S2140042E022002D00610BB200672D0019000060202F
S2140042F09024000C00006D240000B46F14190041D7
S2140043000043001212121004810061151000610DA6
S214004310670C0066005366FF61FD4A6620766042C1
S21400432020000200FF5222000200FF902472E3D118
S214004330004A67FED100D50095006EFF60FE483F3C
S2140043402000822200004EFF4A6648012E33002CD1
S214004350004EFF4C602A410A430A952000004EFF9B
S2140043604A6648012E14002C004EFF4C602C43F980
S2140043702E41014EFE224300227E4A66602E224EC9
S214004380FE43F9424EFD4A6648012E33002C004E8D
S214004390FF4C60287641022000002F2C4EFF2C2078
S2140043A0024A6702202B020C00006620000600006E
S2140043B0222255AA0C55AA66460CAA55662022004B
S2140043C000200000220000744EFD20022B00020890
S2140043D000004A670800006641F860200067204336
S2140043E0F82043F890D1522020204101224EFE4A68
S2140043F067B066206020008D2200004EFF4A6648A7
S214004400012E33002C004EFF4C60247043084EFFF4
S21400441043F820430A2243F84A6722222022430A0E
S2140044202222430A22702223305843F8704EFD4A57
S21400443067FE25002500250A41F8250A4100250AC1
S214004440410A250A21250A250200410A2006000104
S21400445002FFFE2500410A205842002100410A259D
S2140044600A15000A15000A2F430A451A47FFFF706F
S2140044704EFE24934EFE4102210011000011000062
S214004480430223004100205842002100330000234D
S214004490002F2C747A28000061004A662D00747A7A
S2140044A028000061004A662D0008000A08000A2F4E
S2140044B0677C72704E4E51FF51FF0C00006E002458
S2140044C0E4547A7861004A66002D6861124A67E211
S2140044D0611258602C2002210020002C60FD224E24
S2140044E0FE222000824EFF704C3C4E483B2000824D
S2140044F02200002F2C004EFF2C4A670524200004C3
S2140045002200002F2C004EFF2C4A670526170417A2
S2140045100427040C006D08000A55EB1704932F2C93
S214004520004EFE2C41022100110000110000430243
S21400453023004100205842002100330000230023BE
S214004540000C00046D0043023300004302250213F2
S2140045500000330000130000130013000041002089
S2140045601300E01300E01300410A43022F2C004E14
S214004570FE2C2000082F2C004EFE2C43020C0000C0
S214004580670C000067020C000067FF430233000060
S214004590430225021300003300001300001300003E
S2140045A01300410A43022F2C004EFE2C2000082F39
S2140045B02C004EFE2C43020C0000676001430233C1
S2140045C00000430225021300003300002C000043C5
S2140045D00213000013000013004100201300E01334
S2140045E000E01300410A43022F2C004EFE2C200050
S2140045F0082F2C004EFE2C10026107670C00046D7D
S2140046000C000267010C00026706000251FF600101
S21400461042380227000CBA006706000251FF60010C
S214004620610320002700670115000215000215002F
S21400463002350248D015024100201502E01502E0BE
S2140046401502410A43022F2C004EFE2C2000082F94
S2140046502C004EFE2C1002610666000CBA006600A6
S2140046604102201502E01502E01502200027003561
S2140046700248D01502410A43022F2C004EFE2C2081
S21400468000082F2C004EFE2C10026106660CBA04A1
S214004690660032003000C04100217FFF00217FFF0E
S2140046A0006000370000277FFF00277FFF00204ABA
S2140046B06702222000042F2C004EFF2C7060023769
S2140046C0BA0037BA042700000027000000370000B1
S2140046D0277FFF00277FFF00424230041204C0E21B
S2140046E05737042700000441F24A6720202500259A
S2140046F000000041002500701004E1063031003053
S214004700E4064431002F204300220067222200677F
S21400471024006722240067E52274140C0000662437
S21400472060B556FF6606000020602260202420E464
S21400473053C000721204D052250043F1422F2C00C1
S2140047404EFD2C4A670048802020002000E52220ED
S2140047500067E5222067202000E52220000C0000EC
S214004760662000E52072120C00006624004500203A
S21400477053B556FF66202006000020604C0441001A
S2140047802F2C4EFF2C4A67002070722F2C4EFF2CC9
S2140047906072702F2C004EFF2C4A6700222F4100BB
S2140047A02F2C4EFF2C224A66702F2C004EFF2C60BA
S2140047B03300001300001300002300230200410012
S2140047C02F2C004EFE2C60702F2C004EFF2C7028D5
S2140047D0222000822F2C004EFF2C20204C3C4E70B6
S2140047E060704C3C4E2F1500022000E81502200099
S2140047F0E8150230003704150220001502E03200EA
S2140048001704E98015021500024A04671500021510
S21400481000024102201502E01502E015022600679C
S2140048206B52150210020200E08015020C00046CA8
S214004830410A43022F2C004EFE2C2000082F2C008D
S2140048404EFE2C7026001002E8721202C0C05327DB
S21400485000702600676B1002E8721202C053C02771
S21400486000264E00E00003E00006D00000D0000066
S2140048700000E00A04E00A04E00A01E00A0500007D
S214004880FF000100020102FF6001600160F360F3B7
S214004890600A600A600160016001600960096002E8
S2140048A060096009600960096008600860016001CD
S2140048B060016001600160016001600160016001EB
S2140048C060084100B2635060662200B04E002000CF
S2140048D0334000F052014A006600200053016C335A
S2140048E0C000F0704E483D47002E262800002A4A99
S2140048F06718005380007636E5484A38672C3874C7
S214004900340C006F706000E5450020206643EE42E0
S2140049102F2C004EFD2C4A6648012E33002C004EEC
S214004920FF4C60287A5861F74A6600242B00520034
S2140049302067222F2C004EFE2C4C7C4E1B00702B2A
S214004940002B00604800245300663D0000702500E0
S21400495025004C0C704E2F42007010000C006200B8
S21400496020002C04410A0200002F2C004EFE2C2CA6
S2140049704E6100602F242230007212E541FE4E1078
S214004980244E704E13000061004E2F2C004EFE2C5D
S214004990200004430A2F2C004EFE2C4E0200670C0B
S2140049A000670C00670C00670C00670C006760422D
S2140049B04E00483E282D0026002A0061EE410042A7
S2140049C02200002000822F2C004EFE2C4A66480152
S2140049D02E33002C004EFF4C60244A0066012F1533
S2140049E000022000E815022000E815023000370417
S2140049F0150220001502E032001704E98015022295
S214004A00001300004A046713000013000041022050
S214004A101300E01300E013002600676B5215021027
S214004A20020200E08015020C00046C61077026008C
S214004A301002E8721202C0C0532700702600676B8F
S214004A401002E8721202C053C02700264200277FD9
S214004A50FF0037BA0037BA04424230041204C022BC
S214004A6000C0370442044A04670220006104244A56
S214004A70660220006104264A66024A670022004158
S214004A8002201300E01300E01300080004080004EE
S214004A9008000461032A6DDB6103610261022ADB00
S214004AA0B66103610261022AB66D610361026102AA
S214004AB00800046761030800044A6719006052533F
S214004AC066200066002A0453042261FB66526027B3
S214004AD0002B005253042261FB6727002B00525321
S214004AE0042261FB672700270052270443020C00BC
S214004AF00067002F61016101224300600800042264
S214004B0000130000330000100080041300130000A0
S214004B10130000201300E01300E0130061052200DC
S214004B20100061FC67080004080004670008000421
S214004B30220013000033000010008004130013004E
S214004B40004100201300E01300E01300610422007F
S214004B50100061FC66220033000010008004130081
S214004B601300004102201300E01300E0130061046C
S214004B702200100061FC6620006720FFFF41002F26
S214004B802C004EFE2C4C3E60ED0800046719000019
S214004B902261FB20FFFF41002F2C004EFE2C4C3ED6
S214004BA04E220020000200FF4E2F2261FA673400DA
S214004BB00C006C523700080004080004740C0067F0
S214004BC041005460410043002351FF240453042253
S214004BD02F61F9226652602352270423244E0800D0
S214004BE004602F70300004006C70800222480C02B3
S214004BF06F52763604B06F300200FFD0721200D0CB
S214004C00804248C2D0421204C2C200D0264E485843
S214004C10220013000060004858220013000020C045
S214004C20042261F9B26600330048800413003004A1
S214004C3013001300006102220010000200670061EA
S214004C40FA6761FE61FE263804C653220013000090
S214004C502261F8B26600220033004882041300483E
S214004C6013000061022200100002006761FE61FE70
S214004C705251FF4C014E4102423004EF532051FF87
S214004C804E483F49024236042E28C82A2C53421466
S214004C90048C424822D261F8674260180018528C91
S214004CA0424851FF22001300003300488A041300D4
S214004CB0130013000061012200100061F94C144E2D
S214004CC02F22020001660072E2B0006E3404807289
S214004CD04832300048244E7072244E00600048006F
S214004CE02800242D002600200022222222226101F4
S214004CF022002022222222220061F94C3C4E48004B
S214004D002800242D00260017000461010C00006610
S214004D10220020005304660C000066130000600C9E
S214004D20000066130000600C000066130000600CB4
S214004D30000066130000600C00006613000060FFB1
S214004D400C00006613000060FF0C000066130000F5
S214004D5060FF0C00006613000060FF13000060FF99
S214004D6048002426007010042300220057B2670073
S214004D701704670028001900001900004A00676B36
S214004D80410043001212121004810061002261F7F4
S214004D904C3F4E61F74E2300000061F74E60006006
S214004DA000604E2300000061F74E61F74E0C0004D1
S214004DB06C0108000A66702200012F2C004EFE2CA3
S214004DC02F2A0008000A1B00001B00001B00002002
S214004DD000012F2C004EFE2C1B00002A4E0008005F
S214004DE00A670C006C100048002A001B00001B001D
S214004DF04C204E08000A6610006048002A001B007F
S214004E000010004C200C006C10004E48C02A001BFE
S214004E1000001B00001000430A702F2C004EFF2CD1
S214004E2008000A1B00001B000020D1008D10001B8C
S214004E30001B00000C0000660008000A702200013B
S214004E402F2C004EFE2C1B00001B00002000012F04
S214004E502C004EFE2C080000661B00001B00001BEA
S214004E6000000C000066100061FE1B000010001B16
S214004E7000001B00001B000008000A1B00001B00AF
S214004E80004C234E48F008000A67052A0008000A6E
S214004E9008000A1B000028004700450022000C00FE
S214004EA000660020001100000800006608000A6086
S214004EB008000A1B00001B00001000EA160014225F
S214004EC00020001004040016001420002000EF61EB
S214004ED00530003100670553200016001451FF20EE
S214004EE0002000220000E2160014E114E114210064
S214004EF0006708000A6001420A08000A61051000FF
S214004F000C0067010C0067000C0067010C006701CD
S214004F100C0067010C0067600408000A4A0066047B
S214004F201B00001B00001600020061014100A320C8
S214004F30EF080008000A61042000004100A31600E4
S214004F401451FF1600140014001400702200012FE4
S214004F502C004EFE2C61041B0000080000671B009E
S214004F600010000800661B00001B0000870067FF9B
S214004F701B00001B000008000A870019000019002B
S214004F80006008000A2000E208000C000066080026
S214004F900A6008000A6008000A2000E20C000066AA
S214004FA008000A6008000A2461036103610020000B
S214004FB0002016001451FF422200012F2C004EFE46
S214004FC02C610308000A670108000A08000A6761E6
S214004FD0001B0000100008006708006761001B0047
S214004FE0001000080066001B00001B0000190000EF
S214004FF060021000EA160014020000160014004EAC
S2140050001600121600B2664E610C006700160012FB
S2140050100800660800666000160014006103610C54
S214005020006700160012160014006103610C00678A
S21400503000160012160014006103610C00670016CB
S21400504000125848FF4E1B00001B00005848004E38
S21400505008000A6708000A66080066FF080067FF7F
S2140050601B00001B00001600121600B2660C00673C
S214005070001D0A1900001600120C006619000060D8
S21400508001080067011900000800670116001208F1
S21400509000670008006700702200012F2C004EFEFB
S2140050A02C160014006102601900001600120C0095
S2140050B06601702200012F2C004EFE2C16001400F4
S2140050C02000012F2C004EFE2C0800006619000060
S2140050D060001600121D0A1600B26622000C0000C0
S2140050E066200011004A670060004A67000C000056
S2140050F06602000C00671900006000410A20EF08F5
S214005100000A610019000020000041011600145139
S214005110FF1600140014001400702200012F2C004B
S2140051204EFE2C6101080000671B00001B000010EB
S2140051300A1202000C00660002000C006600100A4C
S21400514002000C006D0C0066001900006000602074
S21400515000E11000E0290060200053721200D02900
S2140051600019000022000C000066200070220001DA
S2140051702F2C004EFE2C08000A1B00004C3E4EE171
S2140051801B00001B00E11B00001B00E108000A6773
S2140051901B0000601B00001B001B000008000A4EDE
S2140051A0421000220000E3220000160014E151FF26
S2140051B04E16001400140014004E160008000A676D
S2140051C014006014002000012F2C004EFE2C10004E
S2140051D00800664E03000415000C000000000002E4
S2140051E000002C002200080000660008000A60206C
S2140051F00072E2721300130000080000671300003C
S21400520008000066E051FF61F8612000062F2C00C0
S2140052104EFE2C6008000A6600410A2F2C004EFE47
S2140052202C4A67002261EE6008000A4E000000006B
S804000000FB
@
