head     36.0;
access   ;
symbols  ;
locks    ; strict;
comment  @*   @;


36.0
date     88.05.09.19.22.49;  author bart;  state Exp;
branches ;
next     ;


desc
@@


36.0
log
@added to rcs for updating
@
text
@S0030000FC
S214000000900100000000004453000000002F430011
S2140000104EFF4A672020004E204E206064736C627C
S2140000206179726D6F74647663004A008000810166
S214000030030080008000860065706E696E6C6261A9
S2140000407900697469696E6C626179006864732EC0
S21400005065696500626F726D332E203641723138A5
S214000060290A480043FF20D02241FF43FF2241FF98
S21400007043FF2241FF43FF22410043FF2243FF91BB
S21400008020E42243FF70224300224C02704E0000C0
S2140000902C0020000800006711000008000A6711C5
S2140000A000001000200001430A4EFE7060704E00B3
S2140000B04840410D20000022424A1067B2106E327E
S2140000C01022D1001051FF204210420042104C0234
S2140000D04E22410D200000B2006642004210D10080
S2140000E01051FF4E487828421042001D000A220058
S2140000F08200C200280600002900610FB200662078
S214000100900C00006F200000602200B2676DB200C5
S2140001106D22522900410060225229004100B86DEC
S2140001202898002060B86F28980020602D0000298D
S214000130000070602D0000200011001910D000292A
S2140001400029000029000043002D0061014A674253
S2140001500042104A4C104E48002A6100206661FE5C
S2140001602861FF4A6620009000C0024100D02070FF
S2140001702A51FF424C304E485C2A6100206770226C
S2140001802051FF2A20001100001D000A2D002200E9
S214000190610E2D00614C304E4870220026410D20E5
S2140001A000005210D1001051FF410D200000B60053
S2140001B066B2006DB2006C42109200C2024300D29A
S2140001C060D1001051FF7222204C004E481028008B
S2140001D0260000190A0019000041004300121212BE
S2140001E04100430012121210048100611710006192
S2140001F00F670C006600536661004A60424C174E1B
S214000200481F28007E1E001900002C41007818E187
S21400021018E11841007A1AE11AE11A7060004300AA
S2140002204812E112E11206000243004812E112E1D0
S214000230125276D6C602190A001900004100410043
S21400024043001004810061161000610E67000C0028
S214000250660053664A604256FF19004C174E4838AF
S21400026026002D004204242D0020002202000166B4
S214000270002800260070E02200E02D000C000066FA
S214000280002030000C006661FD6061FD52000600F3
S21400029002060002004A660053662200610D4C1CAE
S2140002A04E22001300006028002600002000220294
S2140002B000016620002D0025000000220070E02D81
S2140002C0002200E02D00240030000C0067190000DA
S2140002D061FC601900001900004100430012121230
S2140002E022002D00610BB200672D0019000060202F
S2140002F09024000C00006D240000B46F14190041D7
S2140003000043001212121004810061151000610DA6
S214000310670C0066005366FF61FD4A6620766042C1
S21400032020000200FF5222000200FF902472E3D118
S214000330004A67FED100D50095006EFF60FE483F3C
S2140003402000822200004EFF4A6648012E33002CD1
S214000350004EFF4C602A410A430A952000004EFF9B
S2140003604A6648012E14002C004EFF4C602C43F980
S2140003702E41014EFE224300227E4A66602E224EC9
S214000380FE43F9424EFD4A6648012E33002C004E8D
S214000390FF4C60287641022000002F2C4EFF2C2078
S2140003A0024A6702202B020C00006620000600006E
S2140003B0222255AA0C55AA66460CAA55662022004B
S2140003C000200000220000744EFD20022B00020890
S2140003D000004A670800006641F860200067204336
S2140003E0F82043F890D1522020204101224EFE4A68
S2140003F067B066206020008D2200004EFF4A6648A7
S214000400012E33002C004EFF4C60247043084EFFF4
S21400041043F820430A2243F84A6722222022430A0E
S2140004202222430A22702223305843F8704EFD4A57
S21400043067FE25002500250A41F8250A4100250AC1
S214000440410A250A21250A250200410A2006000104
S21400045002FFFE2500410A205842002100410A259D
S2140004600A15000A15000A2F430A451A47FFFF706F
S2140004704EFE24934EFE4102210011000011000062
S214000480430223004100205842002100330000234D
S214000490002F2C747A28000061004A662D00747A7A
S2140004A028000061004A662D0008000A08000A2F4E
S2140004B0677C72704E4E51FF51FF0C00006E002458
S2140004C0E4547A7861004A66002D6861124A67E211
S2140004D0611258602C2002210020002C60FD224E24
S2140004E0FE222000824EFF704C3C4E483B2000824D
S2140004F02200002F2C004EFF2C4A670524200004C3
S2140005002200002F2C004EFF2C4A670526170417A2
S2140005100427040C006D08000A55EB1704932F2C93
S214000520004EFE2C41022100110000110000430243
S21400053023004100205842002100330000230023BE
S214000540000C00046D0043023300004302250213F2
S2140005500000330000130000130013000041002089
S2140005601300E01300E01300410A43022F2C004E14
S214000570FE2C2000082F2C004EFE2C43020C0000C0
S214000580670C000067020C000067FF430233000060
S214000590430225021300003300001300001300003E
S2140005A01300410A43022F2C004EFE2C2000082F39
S2140005B02C004EFE2C43020C0000676001430233C1
S2140005C00000430225021300003300002C000043C5
S2140005D00213000013000013004100201300E01334
S2140005E000E01300410A43022F2C004EFE2C200050
S2140005F0082F2C004EFE2C10026107670C00046D7D
S2140006000C000267010C00026706000251FF600101
S21400061042380227000CBA006706000251FF60010C
S214000620610320002700670115000215000215002F
S21400063002350248D015024100201502E01502E0BE
S2140006401502410A43022F2C004EFE2C2000082F94
S2140006502C004EFE2C1002610666000CBA006600A6
S2140006604102201502E01502E01502200027003561
S2140006700248D01502410A43022F2C004EFE2C2081
S21400068000082F2C004EFE2C10026106660CBA04A1
S214000690660032003000C04100217FFF00217FFF0E
S2140006A0006000370000277FFF00277FFF00204ABA
S2140006B06702222000042F2C004EFF2C7060023769
S2140006C0BA0037BA042700000027000000370000B1
S2140006D0277FFF00277FFF00424230041204C0E21B
S2140006E05737042700000441F24A6720202500259A
S2140006F000000041002500701004E1063031003053
S214000700E4064431002F204300220067222200677F
S21400071024006722240067E52274140C0000662437
S21400072060B556FF6606000020602260202420E464
S21400073053C000721204D052250043F1422F2C00C1
S2140007404EFD2C4A670048802020002000E52220ED
S2140007500067E5222067202000E52220000C0000EC
S214000760662000E52072120C00006624004500203A
S21400077053B556FF66202006000020604C0441001A
S2140007802F2C4EFF2C4A67002070722F2C4EFF2CC9
S2140007906072702F2C004EFF2C4A6700222F4100BB
S2140007A02F2C4EFF2C224A66702F2C004EFF2C60BA
S2140007B03300001300001300002300230200410012
S2140007C02F2C004EFE2C60702F2C004EFF2C7028D5
S2140007D0222000822F2C004EFF2C20204C3C4E70B6
S2140007E060704C3C4E2F1500022000E81502200099
S2140007F0E8150230003704150220001502E03200EA
S2140008001704E98015021500024A04671500021510
S21400081000024102201502E01502E015022600679C
S2140008206B52150210020200E08015020C00046CA8
S214000830410A43022F2C004EFE2C2000082F2C008D
S2140008404EFE2C7026001002E8721202C0C05327DB
S21400085000702600676B1002E8721202C053C02771
S21400086000264E00E00003E00006D00000D0000066
S2140008700000E00A04E00A04E00A01E00A0500007D
S214000880FF000100020102FF6001600160F360F3B7
S214000890600A600A600160016001600960096002E8
S2140008A060096009600960096008600860016001CD
S2140008B060016001600160016001600160016001EB
S2140008C060084100B2635060662200B04E002000CF
S2140008D0334000F052014A006600200053016C335A
S2140008E0C000F0704E483D47002E262800002A4A99
S2140008F06718005380007636E5484A38672C3874C7
S214000900340C006F706000E5450020206643EE42E0
S2140009102F2C004EFD2C4A6648012E33002C004EEC
S214000920FF4C60287A5861F74A6600242B00520034
S2140009302067222F2C004EFE2C4C7C4E1B00702B2A
S214000940002B00604800245300663D0000702500E0
S21400095025004C0C704E2F42007010000C006200B8
S21400096020002C04410A0200002F2C004EFE2C2CA6
S2140009704E6100602F242230007212E541FE4E1078
S214000980244E704E13000061004E2F2C004EFE2C5D
S214000990200004430A2F2C004EFE2C4E0200670C0B
S2140009A000670C00670C00670C00670C006760422D
S2140009B04E00483E282D0026002A0061EE410042A7
S2140009C02200002000822F2C004EFE2C4A66480152
S2140009D02E33002C004EFF4C60244A0066012F1533
S2140009E000022000E815022000E815023000370417
S2140009F0150220001502E032001704E98015022295
S214000A00001300004A046713000013000041022050
S214000A101300E01300E013002600676B5215021027
S214000A20020200E08015020C00046C61077026008C
S214000A301002E8721202C0C0532700702600676B8F
S214000A401002E8721202C053C02700264200277FD9
S214000A50FF0037BA0037BA04424230041204C022BC
S214000A6000C0370442044A04670220006104244A56
S214000A70660220006104264A66024A670022004158
S214000A8002201300E01300E01300080004080004EE
S214000A9008000461032A6DDB6103610261022ADB00
S214000AA0B66103610261022AB66D610361026102AA
S214000AB00800046761030800044A6719006052533F
S214000AC066200066002A0453042261FB66526027B3
S214000AD0002B005253042261FB6727002B00525321
S214000AE0042261FB672700270052270443020C00BC
S214000AF00067002F61016101224300600800042264
S214000B0000130000330000100080041300130000A0
S214000B10130000201300E01300E0130061052200DC
S214000B20100061FC67080004080004670008000421
S214000B30220013000033000010008004130013004E
S214000B40004100201300E01300E01300610422007F
S214000B50100061FC66220033000010008004130081
S214000B601300004102201300E01300E0130061046C
S214000B702200100061FC6620006720FFFF41002F26
S214000B802C004EFE2C4C3E60ED0800046719000019
S214000B902261FB20FFFF41002F2C004EFE2C4C3ED6
S214000BA04E220020000200FF4E2F2261FA673400DA
S214000BB00C006C523700080004080004740C0067F0
S214000BC041005460410043002351FF240453042253
S214000BD02F61F9226652602352270423244E0800D0
S214000BE004602F70300004006C70800222480C02B3
S214000BF06F52763604B06F300200FFD0721200D0CB
S214000C00804248C2D0421204C2C200D0264E485843
S214000C10220013000060004858220013000020C045
S214000C20042261F9B26600330048800413003004A1
S214000C3013001300006102220010000200670061EA
S214000C40FA6761FE61FE263804C653220013000090
S214000C502261F8B26600220033004882041300483E
S214000C6013000061022200100002006761FE61FE70
S214000C705251FF4C014E4102423004EF532051FF87
S214000C804E483F49024236042E28C82A2C53421466
S214000C90048C424822D261F8674260180018528C91
S214000CA0424851FF22001300003300488A041300D4
S214000CB0130013000061012200100061F94C144E2D
S214000CC02F22020001660072E2B0006E3404807289
S214000CD04832300048244E7072244E00600048006F
S214000CE02800242D002600200022222222226101F4
S214000CF022002022222222220061F94C3C4E48004B
S214000D002800242D00260017000461010C00006610
S214000D10220020005304660C000066130000600C9E
S214000D20000066130000600C000066130000600CB4
S214000D30000066130000600C00006613000060FFB1
S214000D400C00006613000060FF0C000066130000F5
S214000D5060FF0C00006613000060FF13000060FF99
S214000D6048002426007010042300220057B2670073
S214000D701704670028001900001900004A00676B36
S214000D80410043001212121004810061002261F7F4
S214000D904C3F4E61F74E2300000061F74E60006006
S214000DA000604E2300000061F74E61F74E0C0004D1
S214000DB06C0108000A66702200012F2C004EFE2CA3
S214000DC02F2A0008000A1B00001B00001B00002002
S214000DD000012F2C004EFE2C1B00002A4E0008005F
S214000DE00A670C006C100048002A001B00001B001D
S214000DF04C204E08000A6610006048002A001B007F
S214000E000010004C200C006C10004E48C02A001BFE
S214000E1000001B00001000430A702F2C004EFF2CD1
S214000E2008000A1B00001B000020D1008D10001B8C
S214000E30001B00000C0000660008000A702200013B
S214000E402F2C004EFE2C1B00001B00002000012F04
S214000E502C004EFE2C080000661B00001B00001BEA
S214000E6000000C000066100061FE1B000010001B16
S214000E7000001B00001B000008000A1B00001B00AF
S214000E80004C234E48F008000A67052A0008000A6E
S214000E9008000A1B000028004700450022000C00FE
S214000EA000660020001100000800006608000A6086
S214000EB008000A1B00001B00001000EA160014225F
S214000EC00020001004040016001420002000EF61EB
S214000ED00530003100670553200016001451FF20EE
S214000EE0002000220000E2160014E114E114210064
S214000EF0006708000A6001420A08000A61051000FF
S214000F000C0067010C0067000C0067010C006701CD
S214000F100C0067010C0067600408000A4A0066047B
S214000F201B00001B00001600020061014100A320C8
S214000F30EF080008000A61042000004100A31600E4
S214000F401451FF1600140014001400702200012FE4
S214000F502C004EFE2C61041B0000080000671B009E
S214000F600010000800661B00001B0000870067FF9B
S214000F701B00001B000008000A870019000019002B
S214000F80006008000A2000E208000C000066080026
S214000F900A6008000A6008000A2000E20C000066AA
S214000FA008000A6008000A2461036103610020000B
S214000FB0002016001451FF422200012F2C004EFE46
S214000FC02C610308000A670108000A08000A6761E6
S214000FD0001B0000100008006708006761001B0047
S214000FE0001000080066001B00001B0000190000EF
S214000FF060021000EA160014020000160014004EAC
S2140010001600121600B2664E610C006700160012FB
S2140010100800660800666000160014006103610C54
S214001020006700160012160014006103610C00678A
S21400103000160012160014006103610C00670016CB
S21400104000125848FF4E1B00001B00005848004E38
S21400105008000A6708000A66080066FF080067FF7F
S2140010601B00001B00001600121600B2660C00673C
S214001070001D0A1900001600120C006619000060D8
S21400108001080067011900000800670116001208F1
S21400109000670008006700702200012F2C004EFEFB
S2140010A02C160014006102601900001600120C0095
S2140010B06601702200012F2C004EFE2C16001400F4
S2140010C02000012F2C004EFE2C0800006619000060
S2140010D060001600121D0A1600B26622000C0000C0
S2140010E066200011004A670060004A67000C000056
S2140010F06602000C00671900006000410A20EF08F5
S214001100000A610019000020000041011600145139
S214001110FF1600140014001400702200012F2C004B
S2140011204EFE2C6101080000671B00001B000010EB
S2140011300A1202000C00660002000C006600100A4C
S21400114002000C006D0C0066001900006000602074
S21400115000E11000E0290060200053721200D02900
S2140011600019000022000C000066200070220001DA
S2140011702F2C004EFE2C08000A1B00004C3E4EE171
S2140011801B00001B00E11B00001B00E108000A6773
S2140011901B0000601B00001B001B000008000A4EDE
S2140011A0421000220000E3220000160014E151FF26
S2140011B04E16001400140014004E160008000A676D
S2140011C014006014002000012F2C004EFE2C10004E
S2140011D00800664E03000415000C000000000002E4
S2140011E000002C002200080000660008000A60206C
S2140011F00072E2721300130000080000671300003C
S21400120008000066E051FF61F8612000062F2C00C0
S2140012104EFE2C6008000A6600410A2F2C004EFE47
S2140012202C4A67002261EE6008000A4E000000006B
S804000000FB
@
